{
  "_format": "hh-sol-artifact-1",
  "contractName": "Transactions",
  "sourceName": "contracts/Transactions.sol",
  "abi": [
    {
      "inputs": [],
      "stateMutability": "nonpayable",
      "type": "constructor"
    },
    {
      "inputs": [
        {
          "internalType": "address",
          "name": "sender",
          "type": "address"
        },
        {
          "internalType": "uint256",
          "name": "tokenId",
          "type": "uint256"
        },
        {
          "internalType": "address",
          "name": "owner",
          "type": "address"
        }
      ],
      "name": "ERC721IncorrectOwner",
      "type": "error"
    },
    {
      "inputs": [
        {
          "internalType": "address",
          "name": "operator",
          "type": "address"
        },
        {
          "internalType": "uint256",
          "name": "tokenId",
          "type": "uint256"
        }
      ],
      "name": "ERC721InsufficientApproval",
      "type": "error"
    },
    {
      "inputs": [
        {
          "internalType": "address",
          "name": "approver",
          "type": "address"
        }
      ],
      "name": "ERC721InvalidApprover",
      "type": "error"
    },
    {
      "inputs": [
        {
          "internalType": "address",
          "name": "operator",
          "type": "address"
        }
      ],
      "name": "ERC721InvalidOperator",
      "type": "error"
    },
    {
      "inputs": [
        {
          "internalType": "address",
          "name": "owner",
          "type": "address"
        }
      ],
      "name": "ERC721InvalidOwner",
      "type": "error"
    },
    {
      "inputs": [
        {
          "internalType": "address",
          "name": "receiver",
          "type": "address"
        }
      ],
      "name": "ERC721InvalidReceiver",
      "type": "error"
    },
    {
      "inputs": [
        {
          "internalType": "address",
          "name": "sender",
          "type": "address"
        }
      ],
      "name": "ERC721InvalidSender",
      "type": "error"
    },
    {
      "inputs": [
        {
          "internalType": "uint256",
          "name": "tokenId",
          "type": "uint256"
        }
      ],
      "name": "ERC721NonexistentToken",
      "type": "error"
    },
    {
      "inputs": [
        {
          "internalType": "address",
          "name": "owner",
          "type": "address"
        }
      ],
      "name": "OwnableInvalidOwner",
      "type": "error"
    },
    {
      "inputs": [
        {
          "internalType": "address",
          "name": "account",
          "type": "address"
        }
      ],
      "name": "OwnableUnauthorizedAccount",
      "type": "error"
    },
    {
      "inputs": [],
      "name": "ReentrancyGuardReentrantCall",
      "type": "error"
    },
    {
      "anonymous": false,
      "inputs": [
        {
          "indexed": true,
          "internalType": "address",
          "name": "owner",
          "type": "address"
        },
        {
          "indexed": true,
          "internalType": "address",
          "name": "approved",
          "type": "address"
        },
        {
          "indexed": true,
          "internalType": "uint256",
          "name": "tokenId",
          "type": "uint256"
        }
      ],
      "name": "Approval",
      "type": "event"
    },
    {
      "anonymous": false,
      "inputs": [
        {
          "indexed": true,
          "internalType": "address",
          "name": "owner",
          "type": "address"
        },
        {
          "indexed": true,
          "internalType": "address",
          "name": "operator",
          "type": "address"
        },
        {
          "indexed": false,
          "internalType": "bool",
          "name": "approved",
          "type": "bool"
        }
      ],
      "name": "ApprovalForAll",
      "type": "event"
    },
    {
      "anonymous": false,
      "inputs": [
        {
          "indexed": false,
          "internalType": "uint256",
          "name": "_fromTokenId",
          "type": "uint256"
        },
        {
          "indexed": false,
          "internalType": "uint256",
          "name": "_toTokenId",
          "type": "uint256"
        }
      ],
      "name": "BatchMetadataUpdate",
      "type": "event"
    },
    {
      "anonymous": false,
      "inputs": [
        {
          "indexed": true,
          "internalType": "address",
          "name": "token",
          "type": "address"
        },
        {
          "indexed": true,
          "internalType": "address",
          "name": "from",
          "type": "address"
        },
        {
          "indexed": true,
          "internalType": "address",
          "name": "to",
          "type": "address"
        },
        {
          "indexed": false,
          "internalType": "uint256",
          "name": "amount",
          "type": "uint256"
        }
      ],
      "name": "ERC20Sent",
      "type": "event"
    },
    {
      "anonymous": false,
      "inputs": [
        {
          "indexed": false,
          "internalType": "uint256",
          "name": "_tokenId",
          "type": "uint256"
        }
      ],
      "name": "MetadataUpdate",
      "type": "event"
    },
    {
      "anonymous": false,
      "inputs": [
        {
          "indexed": true,
          "internalType": "address",
          "name": "to",
          "type": "address"
        },
        {
          "indexed": false,
          "internalType": "uint256",
          "name": "tokenId",
          "type": "uint256"
        },
        {
          "indexed": false,
          "internalType": "string",
          "name": "uri",
          "type": "string"
        }
      ],
      "name": "NFTMinted",
      "type": "event"
    },
    {
      "anonymous": false,
      "inputs": [
        {
          "indexed": true,
          "internalType": "address",
          "name": "previousOwner",
          "type": "address"
        },
        {
          "indexed": true,
          "internalType": "address",
          "name": "newOwner",
          "type": "address"
        }
      ],
      "name": "OwnershipTransferred",
      "type": "event"
    },
    {
      "anonymous": false,
      "inputs": [
        {
          "indexed": true,
          "internalType": "address",
          "name": "from",
          "type": "address"
        },
        {
          "indexed": true,
          "internalType": "address",
          "name": "to",
          "type": "address"
        },
        {
          "indexed": true,
          "internalType": "uint256",
          "name": "tokenId",
          "type": "uint256"
        }
      ],
      "name": "Transfer",
      "type": "event"
    },
    {
      "anonymous": false,
      "inputs": [
        {
          "indexed": false,
          "internalType": "address",
          "name": "from",
          "type": "address"
        },
        {
          "indexed": false,
          "internalType": "address",
          "name": "receiver",
          "type": "address"
        },
        {
          "indexed": false,
          "internalType": "uint256",
          "name": "amount",
          "type": "uint256"
        },
        {
          "indexed": false,
          "internalType": "string",
          "name": "message",
          "type": "string"
        },
        {
          "indexed": false,
          "internalType": "uint256",
          "name": "timestamp",
          "type": "uint256"
        },
        {
          "indexed": false,
          "internalType": "string",
          "name": "keyword",
          "type": "string"
        },
        {
          "indexed": false,
          "internalType": "string",
          "name": "txType",
          "type": "string"
        }
      ],
      "name": "Transfer",
      "type": "event"
    },
    {
      "inputs": [
        {
          "internalType": "address",
          "name": "to",
          "type": "address"
        },
        {
          "internalType": "uint256",
          "name": "tokenId",
          "type": "uint256"
        }
      ],
      "name": "approve",
      "outputs": [],
      "stateMutability": "nonpayable",
      "type": "function"
    },
    {
      "inputs": [
        {
          "internalType": "address",
          "name": "owner",
          "type": "address"
        }
      ],
      "name": "balanceOf",
      "outputs": [
        {
          "internalType": "uint256",
          "name": "",
          "type": "uint256"
        }
      ],
      "stateMutability": "view",
      "type": "function"
    },
    {
      "inputs": [],
      "name": "getAllTransactions",
      "outputs": [
        {
          "components": [
            {
              "internalType": "address",
              "name": "sender",
              "type": "address"
            },
            {
              "internalType": "address",
              "name": "receiver",
              "type": "address"
            },
            {
              "internalType": "uint256",
              "name": "amount",
              "type": "uint256"
            },
            {
              "internalType": "string",
              "name": "message",
              "type": "string"
            },
            {
              "internalType": "uint256",
              "name": "timestamp",
              "type": "uint256"
            },
            {
              "internalType": "string",
              "name": "keyword",
              "type": "string"
            },
            {
              "internalType": "string",
              "name": "txType",
              "type": "string"
            },
            {
              "internalType": "string",
              "name": "ipfsHash",
              "type": "string"
            }
          ],
          "internalType": "struct Transactions.TransferStruct[]",
          "name": "",
          "type": "tuple[]"
        }
      ],
      "stateMutability": "view",
      "type": "function"
    },
    {
      "inputs": [
        {
          "internalType": "uint256",
          "name": "tokenId",
          "type": "uint256"
        }
      ],
      "name": "getApproved",
      "outputs": [
        {
          "internalType": "address",
          "name": "",
          "type": "address"
        }
      ],
      "stateMutability": "view",
      "type": "function"
    },
    {
      "inputs": [
        {
          "internalType": "uint256",
          "name": "fromIdx",
          "type": "uint256"
        },
        {
          "internalType": "uint256",
          "name": "toIdx",
          "type": "uint256"
        }
      ],
      "name": "getTransactions",
      "outputs": [
        {
          "components": [
            {
              "internalType": "address",
              "name": "sender",
              "type": "address"
            },
            {
              "internalType": "address",
              "name": "receiver",
              "type": "address"
            },
            {
              "internalType": "uint256",
              "name": "amount",
              "type": "uint256"
            },
            {
              "internalType": "string",
              "name": "message",
              "type": "string"
            },
            {
              "internalType": "uint256",
              "name": "timestamp",
              "type": "uint256"
            },
            {
              "internalType": "string",
              "name": "keyword",
              "type": "string"
            },
            {
              "internalType": "string",
              "name": "txType",
              "type": "string"
            },
            {
              "internalType": "string",
              "name": "ipfsHash",
              "type": "string"
            }
          ],
          "internalType": "struct Transactions.TransferStruct[]",
          "name": "",
          "type": "tuple[]"
        }
      ],
      "stateMutability": "view",
      "type": "function"
    },
    {
      "inputs": [
        {
          "internalType": "address",
          "name": "owner",
          "type": "address"
        },
        {
          "internalType": "address",
          "name": "operator",
          "type": "address"
        }
      ],
      "name": "isApprovedForAll",
      "outputs": [
        {
          "internalType": "bool",
          "name": "",
          "type": "bool"
        }
      ],
      "stateMutability": "view",
      "type": "function"
    },
    {
      "inputs": [
        {
          "internalType": "address",
          "name": "to",
          "type": "address"
        },
        {
          "internalType": "string",
          "name": "tokenURI",
          "type": "string"
        },
        {
          "internalType": "string",
          "name": "message",
          "type": "string"
        },
        {
          "internalType": "string",
          "name": "keyword",
          "type": "string"
        },
        {
          "internalType": "string",
          "name": "ipfsHash",
          "type": "string"
        }
      ],
      "name": "mintNFT",
      "outputs": [],
      "stateMutability": "nonpayable",
      "type": "function"
    },
    {
      "inputs": [
        {
          "internalType": "string",
          "name": "tokenURI",
          "type": "string"
        },
        {
          "internalType": "string",
          "name": "message",
          "type": "string"
        },
        {
          "internalType": "string",
          "name": "keyword",
          "type": "string"
        },
        {
          "internalType": "string",
          "name": "ipfsHash",
          "type": "string"
        }
      ],
      "name": "mintNFTByUser",
      "outputs": [],
      "stateMutability": "nonpayable",
      "type": "function"
    },
    {
      "inputs": [],
      "name": "name",
      "outputs": [
        {
          "internalType": "string",
          "name": "",
          "type": "string"
        }
      ],
      "stateMutability": "view",
      "type": "function"
    },
    {
      "inputs": [],
      "name": "nftTokenId",
      "outputs": [
        {
          "internalType": "uint256",
          "name": "",
          "type": "uint256"
        }
      ],
      "stateMutability": "view",
      "type": "function"
    },
    {
      "inputs": [],
      "name": "owner",
      "outputs": [
        {
          "internalType": "address",
          "name": "",
          "type": "address"
        }
      ],
      "stateMutability": "view",
      "type": "function"
    },
    {
      "inputs": [
        {
          "internalType": "uint256",
          "name": "tokenId",
          "type": "uint256"
        }
      ],
      "name": "ownerOf",
      "outputs": [
        {
          "internalType": "address",
          "name": "",
          "type": "address"
        }
      ],
      "stateMutability": "view",
      "type": "function"
    },
    {
      "inputs": [],
      "name": "renounceOwnership",
      "outputs": [],
      "stateMutability": "nonpayable",
      "type": "function"
    },
    {
      "inputs": [
        {
          "internalType": "address",
          "name": "from",
          "type": "address"
        },
        {
          "internalType": "address",
          "name": "to",
          "type": "address"
        },
        {
          "internalType": "uint256",
          "name": "tokenId",
          "type": "uint256"
        }
      ],
      "name": "safeTransferFrom",
      "outputs": [],
      "stateMutability": "nonpayable",
      "type": "function"
    },
    {
      "inputs": [
        {
          "internalType": "address",
          "name": "from",
          "type": "address"
        },
        {
          "internalType": "address",
          "name": "to",
          "type": "address"
        },
        {
          "internalType": "uint256",
          "name": "tokenId",
          "type": "uint256"
        },
        {
          "internalType": "bytes",
          "name": "data",
          "type": "bytes"
        }
      ],
      "name": "safeTransferFrom",
      "outputs": [],
      "stateMutability": "nonpayable",
      "type": "function"
    },
    {
      "inputs": [
        {
          "internalType": "address",
          "name": "token",
          "type": "address"
        },
        {
          "internalType": "address",
          "name": "receiver",
          "type": "address"
        },
        {
          "internalType": "uint256",
          "name": "amount",
          "type": "uint256"
        },
        {
          "internalType": "string",
          "name": "message",
          "type": "string"
        },
        {
          "internalType": "string",
          "name": "keyword",
          "type": "string"
        },
        {
          "internalType": "string",
          "name": "ipfsHash",
          "type": "string"
        }
      ],
      "name": "sendERC20",
      "outputs": [],
      "stateMutability": "nonpayable",
      "type": "function"
    },
    {
      "inputs": [
        {
          "internalType": "address payable",
          "name": "receiver",
          "type": "address"
        },
        {
          "internalType": "string",
          "name": "message",
          "type": "string"
        },
        {
          "internalType": "string",
          "name": "keyword",
          "type": "string"
        },
        {
          "internalType": "string",
          "name": "ipfsHash",
          "type": "string"
        }
      ],
      "name": "sendETH",
      "outputs": [],
      "stateMutability": "payable",
      "type": "function"
    },
    {
      "inputs": [
        {
          "internalType": "address",
          "name": "operator",
          "type": "address"
        },
        {
          "internalType": "bool",
          "name": "approved",
          "type": "bool"
        }
      ],
      "name": "setApprovalForAll",
      "outputs": [],
      "stateMutability": "nonpayable",
      "type": "function"
    },
    {
      "inputs": [
        {
          "internalType": "bytes4",
          "name": "interfaceId",
          "type": "bytes4"
        }
      ],
      "name": "supportsInterface",
      "outputs": [
        {
          "internalType": "bool",
          "name": "",
          "type": "bool"
        }
      ],
      "stateMutability": "view",
      "type": "function"
    },
    {
      "inputs": [],
      "name": "symbol",
      "outputs": [
        {
          "internalType": "string",
          "name": "",
          "type": "string"
        }
      ],
      "stateMutability": "view",
      "type": "function"
    },
    {
      "inputs": [
        {
          "internalType": "uint256",
          "name": "tokenId",
          "type": "uint256"
        }
      ],
      "name": "tokenURI",
      "outputs": [
        {
          "internalType": "string",
          "name": "",
          "type": "string"
        }
      ],
      "stateMutability": "view",
      "type": "function"
    },
    {
      "inputs": [],
      "name": "transactionCount",
      "outputs": [
        {
          "internalType": "uint256",
          "name": "",
          "type": "uint256"
        }
      ],
      "stateMutability": "view",
      "type": "function"
    },
    {
      "inputs": [
        {
          "internalType": "uint256",
          "name": "",
          "type": "uint256"
        }
      ],
      "name": "transactions",
      "outputs": [
        {
          "internalType": "address",
          "name": "sender",
          "type": "address"
        },
        {
          "internalType": "address",
          "name": "receiver",
          "type": "address"
        },
        {
          "internalType": "uint256",
          "name": "amount",
          "type": "uint256"
        },
        {
          "internalType": "string",
          "name": "message",
          "type": "string"
        },
        {
          "internalType": "uint256",
          "name": "timestamp",
          "type": "uint256"
        },
        {
          "internalType": "string",
          "name": "keyword",
          "type": "string"
        },
        {
          "internalType": "string",
          "name": "txType",
          "type": "string"
        },
        {
          "internalType": "string",
          "name": "ipfsHash",
          "type": "string"
        }
      ],
      "stateMutability": "view",
      "type": "function"
    },
    {
      "inputs": [
        {
          "internalType": "address",
          "name": "from",
          "type": "address"
        },
        {
          "internalType": "address",
          "name": "to",
          "type": "address"
        },
        {
          "internalType": "uint256",
          "name": "tokenId",
          "type": "uint256"
        }
      ],
      "name": "transferFrom",
      "outputs": [],
      "stateMutability": "nonpayable",
      "type": "function"
    },
    {
      "inputs": [
        {
          "internalType": "address",
          "name": "newOwner",
          "type": "address"
        }
      ],
      "name": "transferOwnership",
      "outputs": [],
      "stateMutability": "nonpayable",
      "type": "function"
    }
  ],
  "bytecode": "0x60806040523480156200001157600080fd5b50604080518082018252600d81526c135bd9195c9b95d9588cd39195609a1b6020808301919091528251808401909352600483526326ab99a760e11b908301529033806200007957604051631e4fbdf760e01b81526000600482015260240160405180910390fd5b6200008481620000af565b50600180556002620000978382620001a4565b506003620000a68282620001a4565b50505062000270565b600080546001600160a01b038381166001600160a01b0319831681178455604051919092169283917f8be0079c531659141344cd1fd0a4f28419497f9722a3daafe3b4186f6b6457e09190a35050565b634e487b7160e01b600052604160045260246000fd5b600181811c908216806200012a57607f821691505b6020821081036200014b57634e487b7160e01b600052602260045260246000fd5b50919050565b601f8211156200019f57600081815260208120601f850160051c810160208610156200017a5750805b601f850160051c820191505b818110156200019b5782815560010162000186565b5050505b505050565b81516001600160401b03811115620001c057620001c0620000ff565b620001d881620001d1845462000115565b8462000151565b602080601f831160018114620002105760008415620001f75750858301515b600019600386901b1c1916600185901b1785556200019b565b600085815260208120601f198616915b82811015620002415788860151825594840194600190910190840162000220565b5085821015620002605787850151600019600388901b60f8161c191681555b5050505050600190811b01905550565b612d5180620002806000396000f3fe6080604052600436106101665760003560e01c8063856523d9116100d1578063b77bf6001161008a578063cee28be111610064578063cee28be114610427578063d7edeab214610447578063e985e9c514610467578063f2fde38b1461048757600080fd5b8063b77bf600146103d1578063b88d4fde146103e7578063c87b56dd1461040757600080fd5b8063856523d9146103175780638898971a1461032a5780638da5cb5b1461034a57806395d89b41146103685780639ace38c21461037d578063a22cb465146103b157600080fd5b80632eb4ebbe116101235780632eb4ebbe1461025e57806342842e0e1461027e5780636352211e1461029e57806370a08231146102be578063715018a6146102ec5780637e8305741461030157600080fd5b806301ffc9a71461016b57806306fdde03146101a0578063081812fc146101c2578063095ea7b3146101fa57806323b872dd1461021c57806327506f531461023c575b600080fd5b34801561017757600080fd5b5061018b610186366004612261565b6104a7565b60405190151581526020015b60405180910390f35b3480156101ac57600080fd5b506101b56104d2565b60405161019791906122ce565b3480156101ce57600080fd5b506101e26101dd3660046122e1565b610564565b6040516001600160a01b039091168152602001610197565b34801561020657600080fd5b5061021a61021536600461230f565b61058d565b005b34801561022857600080fd5b5061021a61023736600461233b565b61059c565b34801561024857600080fd5b5061025161062c565b604051610197919061237c565b34801561026a57600080fd5b5061021a610279366004612525565b610967565b34801561028a57600080fd5b5061021a61029936600461233b565b610bdc565b3480156102aa57600080fd5b506101e26102b93660046122e1565b610bfc565b3480156102ca57600080fd5b506102de6102d93660046125db565b610c07565b604051908152602001610197565b3480156102f857600080fd5b5061021a610c4f565b34801561030d57600080fd5b506102de600a5481565b61021a6103253660046125f8565b610c63565b34801561033657600080fd5b50610251610345366004612693565b610e37565b34801561035657600080fd5b506000546001600160a01b03166101e2565b34801561037457600080fd5b506101b56111d6565b34801561038957600080fd5b5061039d6103983660046122e1565b6111e5565b6040516101979897969594939291906126b5565b3480156103bd57600080fd5b5061021a6103cc366004612748565b611454565b3480156103dd57600080fd5b506102de60095481565b3480156103f357600080fd5b5061021a610402366004612781565b61145f565b34801561041357600080fd5b506101b56104223660046122e1565b611477565b34801561043357600080fd5b5061021a6104423660046127f5565b611588565b34801561045357600080fd5b5061021a6104623660046128b5565b61176c565b34801561047357600080fd5b5061018b610482366004612905565b61192f565b34801561049357600080fd5b5061021a6104a23660046125db565b61195d565b60006001600160e01b03198216632483248360e11b14806104cc57506104cc8261199b565b92915050565b6060600280546104e190612933565b80601f016020809104026020016040519081016040528092919081815260200182805461050d90612933565b801561055a5780601f1061052f5761010080835404028352916020019161055a565b820191906000526020600020905b81548152906001019060200180831161053d57829003601f168201915b5050505050905090565b600061056f826119eb565b506000828152600660205260409020546001600160a01b03166104cc565b610598828233611a24565b5050565b6001600160a01b0382166105cb57604051633250574960e11b8152600060048201526024015b60405180910390fd5b60006105d8838333611a31565b9050836001600160a01b0316816001600160a01b031614610626576040516364283d7b60e01b81526001600160a01b03808616600483015260248201849052821660448201526064016105c2565b50505050565b6060600060095467ffffffffffffffff81111561064b5761064b612479565b60405190808252806020026020018201604052801561068457816020015b6106716121f4565b8152602001906001900390816106695790505b50905060005b600954811015610961576000818152600b602090815260409182902082516101008101845281546001600160a01b039081168252600183015416928101929092526002810154928201929092526003820180549192916060840191906106ef90612933565b80601f016020809104026020016040519081016040528092919081815260200182805461071b90612933565b80156107685780601f1061073d57610100808354040283529160200191610768565b820191906000526020600020905b81548152906001019060200180831161074b57829003601f168201915b505050505081526020016004820154815260200160058201805461078b90612933565b80601f01602080910402602001604051908101604052809291908181526020018280546107b790612933565b80156108045780601f106107d957610100808354040283529160200191610804565b820191906000526020600020905b8154815290600101906020018083116107e757829003601f168201915b5050505050815260200160068201805461081d90612933565b80601f016020809104026020016040519081016040528092919081815260200182805461084990612933565b80156108965780601f1061086b57610100808354040283529160200191610896565b820191906000526020600020905b81548152906001019060200180831161087957829003601f168201915b505050505081526020016007820180546108af90612933565b80601f01602080910402602001604051908101604052809291908181526020018280546108db90612933565b80156109285780601f106108fd57610100808354040283529160200191610928565b820191906000526020600020905b81548152906001019060200180831161090b57829003601f168201915b50505050508152505082828151811061094357610943612967565b6020026020010181905250808061095990612993565b91505061068a565b50919050565b61096f611b2a565b600084116109b45760405162461bcd60e51b81526020600482015260126024820152710416d6f756e74206d757374206265203e20360741b60448201526064016105c2565b6040516323b872dd60e01b81523360048201526001600160a01b038681166024830152604482018690528716906323b872dd906064016020604051808303816000875af1158015610a09573d6000803e3d6000fd5b505050506040513d601f19601f82011682018060405250810190610a2d91906129ac565b5060408051610100810182523381526001600160a01b0387811660208084019182528385018981526060850189815242608087015260a08601899052865180880188526005815264045524332360dc1b8185015260c087015260e086018890526009546000908152600b90935295909120845181549085166001600160a01b03199182161782559251600182018054919095169316929092179092559051600282015591519091906003820190610ae49082612a0f565b506080820151600482015560a08201516005820190610b039082612a0f565b5060c08201516006820190610b189082612a0f565b5060e08201516007820190610b2d9082612a0f565b50905050600080516020612cfc833981519152338686864287604051610b5896959493929190612acf565b60405180910390a1846001600160a01b0316336001600160a01b0316876001600160a01b03167f50aa48c56705cbc94ffcf48204a0b0ad367c89816f0cd18728d63595a186fda387604051610baf91815260200190565b60405180910390a4600160096000828254610bca9190612b47565b9091555050600180555b505050505050565b610bf78383836040518060200160405280600081525061145f565b505050565b60006104cc826119eb565b60006001600160a01b038216610c33576040516322718ad960e21b8152600060048201526024016105c2565b506001600160a01b031660009081526005602052604090205490565b610c57611b54565b610c616000611b81565b565b610c6b611b2a565b60003411610cab5760405162461bcd60e51b815260206004820152600d60248201526c09aeae6e840e6cadcc8408aa89609b1b60448201526064016105c2565b6040516001600160a01b038516903480156108fc02916000818181858888f19350505050158015610ce0573d6000803e3d6000fd5b5060408051610100810182523381526001600160a01b038681166020808401918252348486019081526060850189815242608087015260a086018990528651808801885260038082526208aa8960eb1b8286015260c088019190915260e087018990526009546000908152600b90945296909220855181549086166001600160a01b03199182161782559351600182018054919096169416939093179093559151600282015590519192909190820190610d9a9082612a0f565b506080820151600482015560a08201516005820190610db99082612a0f565b5060c08201516006820190610dce9082612a0f565b5060e08201516007820190610de39082612a0f565b50905050600080516020612cfc833981519152338534864287604051610e0e96959493929190612b5a565b60405180910390a1600160096000828254610e299190612b47565b909155505060018055610626565b60608282118015610e4a57506009548211155b610e8c5760405162461bcd60e51b8152602060048201526013602482015272496e76616c696420696e6465782072616e676560681b60448201526064016105c2565b6000610e988484612bd0565b67ffffffffffffffff811115610eb057610eb0612479565b604051908082528060200260200182016040528015610ee957816020015b610ed66121f4565b815260200190600190039081610ece5790505b509050835b838110156111ce576000818152600b602090815260409182902082516101008101845281546001600160a01b03908116825260018301541692810192909252600281015492820192909252600382018054919291606084019190610f5190612933565b80601f0160208091040260200160405190810160405280929190818152602001828054610f7d90612933565b8015610fca5780601f10610f9f57610100808354040283529160200191610fca565b820191906000526020600020905b815481529060010190602001808311610fad57829003601f168201915b5050505050815260200160048201548152602001600582018054610fed90612933565b80601f016020809104026020016040519081016040528092919081815260200182805461101990612933565b80156110665780601f1061103b57610100808354040283529160200191611066565b820191906000526020600020905b81548152906001019060200180831161104957829003601f168201915b5050505050815260200160068201805461107f90612933565b80601f01602080910402602001604051908101604052809291908181526020018280546110ab90612933565b80156110f85780601f106110cd576101008083540402835291602001916110f8565b820191906000526020600020905b8154815290600101906020018083116110db57829003601f168201915b5050505050815260200160078201805461111190612933565b80601f016020809104026020016040519081016040528092919081815260200182805461113d90612933565b801561118a5780601f1061115f5761010080835404028352916020019161118a565b820191906000526020600020905b81548152906001019060200180831161116d57829003601f168201915b5050505050815250508286836111a09190612bd0565b815181106111b0576111b0612967565b602002602001018190525080806111c690612993565b915050610eee565b509392505050565b6060600380546104e190612933565b600b6020526000908152604090208054600182015460028301546003840180546001600160a01b03948516959490931693919261122190612933565b80601f016020809104026020016040519081016040528092919081815260200182805461124d90612933565b801561129a5780601f1061126f5761010080835404028352916020019161129a565b820191906000526020600020905b81548152906001019060200180831161127d57829003601f168201915b5050505050908060040154908060050180546112b590612933565b80601f01602080910402602001604051908101604052809291908181526020018280546112e190612933565b801561132e5780601f106113035761010080835404028352916020019161132e565b820191906000526020600020905b81548152906001019060200180831161131157829003601f168201915b50505050509080600601805461134390612933565b80601f016020809104026020016040519081016040528092919081815260200182805461136f90612933565b80156113bc5780601f10611391576101008083540402835291602001916113bc565b820191906000526020600020905b81548152906001019060200180831161139f57829003601f168201915b5050505050908060070180546113d190612933565b80601f01602080910402602001604051908101604052809291908181526020018280546113fd90612933565b801561144a5780601f1061141f5761010080835404028352916020019161144a565b820191906000526020600020905b81548152906001019060200180831161142d57829003601f168201915b5050505050905088565b610598338383611bd1565b61146a84848461059c565b6106263385858585611c70565b6060611482826119eb565b506000828152600860205260408120805461149c90612933565b80601f01602080910402602001604051908101604052809291908181526020018280546114c890612933565b80156115155780601f106114ea57610100808354040283529160200191611515565b820191906000526020600020905b8154815290600101906020018083116114f857829003601f168201915b50505050509050600061153360408051602081019091526000815290565b90508051600003611545575092915050565b81511561157757808260405160200161155f929190612be3565b60405160208183030381529060405292505050919050565b61158084611d92565b949350505050565b611590611b54565b611598611b2a565b6001600a60008282546115ab9190612b47565b925050819055506115be85600a54611e07565b6115ca600a5485611e6c565b60408051610100810182523381526001600160a01b038781166020808401918252600a548486019081526060850189815242608087015260a086018990528651808801885260038082526213919560ea1b8286015260c088019190915260e087018990526009546000908152600b90945296909220855181549086166001600160a01b031991821617825593516001820180549190961694169390931790935591516002820155905191929091908201906116859082612a0f565b506080820151600482015560a082015160058201906116a49082612a0f565b5060c082015160068201906116b99082612a0f565b5060e082015160078201906116ce9082612a0f565b50905050600080516020612cfc8339815191523386600a548642876040516116fb96959493929190612c12565b60405180910390a1846001600160a01b03167fd35bb95e09c04b219e35047ce7b7b300e3384264ef84a40456943dbc0fc17c14600a5486604051611740929190612c88565b60405180910390a260016009600082825461175b9190612b47565b9091555050600180555b5050505050565b611774611b2a565b6001600a60008282546117879190612b47565b9250508190555061179a33600a54611e07565b6117a6600a5485611e6c565b6040805161010081018252338082526020808301918252600a548385019081526060840188815242608086015260a085018890528551808701875260038082526213919560ea1b8286015260c087019190915260e086018890526009546000908152600b90945295909220845181546001600160a01b03199081166001600160a01b0392831617835594516001830180549096169116179093555160028301555191929091908201906118599082612a0f565b506080820151600482015560a082015160058201906118789082612a0f565b5060c0820151600682019061188d9082612a0f565b5060e082015160078201906118a29082612a0f565b50905050600080516020612cfc8339815191523333600a548642876040516118cf96959493929190612c12565b60405180910390a1336001600160a01b03167fd35bb95e09c04b219e35047ce7b7b300e3384264ef84a40456943dbc0fc17c14600a5486604051611914929190612c88565b60405180910390a2600160096000828254610e299190612b47565b6001600160a01b03918216600090815260076020908152604080832093909416825291909152205460ff1690565b611965611b54565b6001600160a01b03811661198f57604051631e4fbdf760e01b8152600060048201526024016105c2565b61199881611b81565b50565b60006001600160e01b031982166380ac58cd60e01b14806119cc57506001600160e01b03198216635b5e139f60e01b145b806104cc57506301ffc9a760e01b6001600160e01b03198316146104cc565b6000818152600460205260408120546001600160a01b0316806104cc57604051637e27328960e01b8152600481018490526024016105c2565b610bf78383836001611ebc565b6000828152600460205260408120546001600160a01b0390811690831615611a5e57611a5e818486611fc2565b6001600160a01b03811615611a9c57611a7b600085600080611ebc565b6001600160a01b038116600090815260056020526040902080546000190190555b6001600160a01b03851615611acb576001600160a01b0385166000908152600560205260409020805460010190555b60008481526004602052604080822080546001600160a01b0319166001600160a01b0389811691821790925591518793918516917fddf252ad1be2c89b69c2b068fc378daa952ba7f163c4a11628f55a4df523b3ef91a4949350505050565b600260015403611b4d57604051633ee5aeb560e01b815260040160405180910390fd5b6002600155565b6000546001600160a01b03163314610c615760405163118cdaa760e01b81523360048201526024016105c2565b600080546001600160a01b038381166001600160a01b0319831681178455604051919092169283917f8be0079c531659141344cd1fd0a4f28419497f9722a3daafe3b4186f6b6457e09190a35050565b6001600160a01b038216611c0357604051630b61174360e31b81526001600160a01b03831660048201526024016105c2565b6001600160a01b03838116600081815260076020908152604080832094871680845294825291829020805460ff191686151590811790915591519182527f17307eab39ab6107e8899845ad3d59bd9653f200f220920489ca2b5937696c31910160405180910390a3505050565b6001600160a01b0383163b1561176557604051630a85bd0160e11b81526001600160a01b0384169063150b7a0290611cb2908890889087908790600401612ca1565b6020604051808303816000875af1925050508015611ced575060408051601f3d908101601f19168201909252611cea91810190612cde565b60015b611d56573d808015611d1b576040519150601f19603f3d011682016040523d82523d6000602084013e611d20565b606091505b508051600003611d4e57604051633250574960e11b81526001600160a01b03851660048201526024016105c2565b805160208201fd5b6001600160e01b03198116630a85bd0160e11b14610bd457604051633250574960e11b81526001600160a01b03851660048201526024016105c2565b6060611d9d826119eb565b506000611db560408051602081019091526000815290565b90506000815111611dd55760405180602001604052806000815250611e00565b80611ddf84612026565b604051602001611df0929190612be3565b6040516020818303038152906040525b9392505050565b6001600160a01b038216611e3157604051633250574960e11b8152600060048201526024016105c2565b6000611e3f83836000611a31565b90506001600160a01b03811615610bf7576040516339e3563760e11b8152600060048201526024016105c2565b6000828152600860205260409020611e848282612a0f565b506040518281527ff8e1a15aba9398e019f0b49df1a4fde98ee17ae345cb5f6b5e2c27f5033e8ce79060200160405180910390a15050565b8080611ed057506001600160a01b03821615155b15611f92576000611ee0846119eb565b90506001600160a01b03831615801590611f0c5750826001600160a01b0316816001600160a01b031614155b8015611f1f5750611f1d818461192f565b155b15611f485760405163a9fbf51f60e01b81526001600160a01b03841660048201526024016105c2565b8115611f905783856001600160a01b0316826001600160a01b03167f8c5be1e5ebec7d5bd14f71427d1e84f3dd0314c0f7b2291e5b200ac8c7c3b92560405160405180910390a45b505b5050600090815260066020526040902080546001600160a01b0319166001600160a01b0392909216919091179055565b611fcd8383836120b9565b610bf7576001600160a01b038316611ffb57604051637e27328960e01b8152600481018290526024016105c2565b60405163177e802f60e01b81526001600160a01b0383166004820152602481018290526044016105c2565b606060006120338361211c565b600101905060008167ffffffffffffffff81111561205357612053612479565b6040519080825280601f01601f19166020018201604052801561207d576020820181803683370190505b5090508181016020015b600019016f181899199a1a9b1b9c1cb0b131b232b360811b600a86061a8153600a850494508461208757509392505050565b60006001600160a01b038316158015906115805750826001600160a01b0316846001600160a01b031614806120f357506120f3848461192f565b806115805750506000908152600660205260409020546001600160a01b03908116911614919050565b60008072184f03e93ff9f4daa797ed6e38ed64bf6a1f0160401b831061215b5772184f03e93ff9f4daa797ed6e38ed64bf6a1f0160401b830492506040015b6d04ee2d6d415b85acef81000000008310612187576d04ee2d6d415b85acef8100000000830492506020015b662386f26fc1000083106121a557662386f26fc10000830492506010015b6305f5e10083106121bd576305f5e100830492506008015b61271083106121d157612710830492506004015b606483106121e3576064830492506002015b600a83106104cc5760010192915050565b60405180610100016040528060006001600160a01b0316815260200160006001600160a01b031681526020016000815260200160608152602001600081526020016060815260200160608152602001606081525090565b6001600160e01b03198116811461199857600080fd5b60006020828403121561227357600080fd5b8135611e008161224b565b60005b83811015612299578181015183820152602001612281565b50506000910152565b600081518084526122ba81602086016020860161227e565b601f01601f19169290920160200192915050565b602081526000611e0060208301846122a2565b6000602082840312156122f357600080fd5b5035919050565b6001600160a01b038116811461199857600080fd5b6000806040838503121561232257600080fd5b823561232d816122fa565b946020939093013593505050565b60008060006060848603121561235057600080fd5b833561235b816122fa565b9250602084013561236b816122fa565b929592945050506040919091013590565b60006020808301818452808551808352604092508286019150828160051b87010184880160005b8381101561246b57888303603f19018552815180516001600160a01b03168452610100818901516001600160a01b038116868b015250878201518886015260608083015182828801526123f8838801826122a2565b92505050608080830151818701525060a0808301518683038288015261241e83826122a2565b9250505060c0808301518683038288015261243983826122a2565b9250505060e0808301519250858203818701525061245781836122a2565b9689019694505050908601906001016123a3565b509098975050505050505050565b634e487b7160e01b600052604160045260246000fd5b600067ffffffffffffffff808411156124aa576124aa612479565b604051601f8501601f19908116603f011681019082821181831017156124d2576124d2612479565b816040528093508581528686860111156124eb57600080fd5b858560208301376000602087830101525050509392505050565b600082601f83011261251657600080fd5b611e008383356020850161248f565b60008060008060008060c0878903121561253e57600080fd5b8635612549816122fa565b95506020870135612559816122fa565b945060408701359350606087013567ffffffffffffffff8082111561257d57600080fd5b6125898a838b01612505565b9450608089013591508082111561259f57600080fd5b6125ab8a838b01612505565b935060a08901359150808211156125c157600080fd5b506125ce89828a01612505565b9150509295509295509295565b6000602082840312156125ed57600080fd5b8135611e00816122fa565b6000806000806080858703121561260e57600080fd5b8435612619816122fa565b9350602085013567ffffffffffffffff8082111561263657600080fd5b61264288838901612505565b9450604087013591508082111561265857600080fd5b61266488838901612505565b9350606087013591508082111561267a57600080fd5b5061268787828801612505565b91505092959194509250565b600080604083850312156126a657600080fd5b50508035926020909101359150565b6001600160a01b0389811682528816602082015260408101879052610100606082018190526000906126e9838201896122a2565b905086608084015282810360a084015261270381876122a2565b905082810360c084015261271781866122a2565b905082810360e084015261272b81856122a2565b9b9a5050505050505050505050565b801515811461199857600080fd5b6000806040838503121561275b57600080fd5b8235612766816122fa565b915060208301356127768161273a565b809150509250929050565b6000806000806080858703121561279757600080fd5b84356127a2816122fa565b935060208501356127b2816122fa565b925060408501359150606085013567ffffffffffffffff8111156127d557600080fd5b8501601f810187136127e657600080fd5b6126878782356020840161248f565b600080600080600060a0868803121561280d57600080fd5b8535612818816122fa565b9450602086013567ffffffffffffffff8082111561283557600080fd5b61284189838a01612505565b9550604088013591508082111561285757600080fd5b61286389838a01612505565b9450606088013591508082111561287957600080fd5b61288589838a01612505565b9350608088013591508082111561289b57600080fd5b506128a888828901612505565b9150509295509295909350565b600080600080608085870312156128cb57600080fd5b843567ffffffffffffffff808211156128e357600080fd5b6128ef88838901612505565b9550602087013591508082111561263657600080fd5b6000806040838503121561291857600080fd5b8235612923816122fa565b91506020830135612776816122fa565b600181811c9082168061294757607f821691505b60208210810361096157634e487b7160e01b600052602260045260246000fd5b634e487b7160e01b600052603260045260246000fd5b634e487b7160e01b600052601160045260246000fd5b6000600182016129a5576129a561297d565b5060010190565b6000602082840312156129be57600080fd5b8151611e008161273a565b601f821115610bf757600081815260208120601f850160051c810160208610156129f05750805b601f850160051c820191505b81811015610bd4578281556001016129fc565b815167ffffffffffffffff811115612a2957612a29612479565b612a3d81612a378454612933565b846129c9565b602080601f831160018114612a725760008415612a5a5750858301515b600019600386901b1c1916600185901b178555610bd4565b600085815260208120601f198616915b82811015612aa157888601518255948401946001909101908401612a82565b5085821015612abf5787850151600019600388901b60f8161c191681555b5050505050600190811b01905550565b6001600160a01b038781168252861660208201526040810185905260e060608201819052600090612b02908301866122a2565b84608084015282810360a0840152612b1a81856122a2565b83810360c09094019390935250506005815264045524332360dc1b60208201526040019695505050505050565b808201808211156104cc576104cc61297d565b6001600160a01b038781168252861660208201526040810185905260e060608201819052600090612b8d908301866122a2565b84608084015282810360a0840152612ba581856122a2565b83810360c0909401939093525050600381526208aa8960eb1b60208201526040019695505050505050565b818103818111156104cc576104cc61297d565b60008351612bf581846020880161227e565b835190830190612c0981836020880161227e565b01949350505050565b6001600160a01b038781168252861660208201526040810185905260e060608201819052600090612c45908301866122a2565b84608084015282810360a0840152612c5d81856122a2565b83810360c0909401939093525050600381526213919560ea1b60208201526040019695505050505050565b82815260406020820152600061158060408301846122a2565b6001600160a01b0385811682528416602082015260408101839052608060608201819052600090612cd4908301846122a2565b9695505050505050565b600060208284031215612cf057600080fd5b8151611e008161224b56fe21ec5b3f3e6c597e1a0d1650e5545618667a89bf7d7341cc53e38673d3dede32a2646970667358221220e7140741743160d1ed81fa805e5fed22ce670435c4989d74be50e5ed8be492e464736f6c63430008140033",
  "linkReferences": {},
  "deployedLinkReferences": {}
}